{
  "contractName": "CarpoolingFactory",
  "abi": [
    {
      "inputs": [],
      "payable": false,
      "stateMutability": "nonpayable",
      "type": "constructor"
    },
    {
      "anonymous": false,
      "inputs": [
        {
          "indexed": false,
          "internalType": "address",
          "name": "driver",
          "type": "address"
        },
        {
          "indexed": false,
          "internalType": "uint64",
          "name": "carpoolingId",
          "type": "uint64"
        },
        {
          "indexed": false,
          "internalType": "address",
          "name": "carpooling",
          "type": "address"
        }
      ],
      "name": "CreateCarpooling",
      "type": "event"
    },
    {
      "anonymous": false,
      "inputs": [
        {
          "indexed": false,
          "internalType": "address",
          "name": "service",
          "type": "address"
        },
        {
          "indexed": false,
          "internalType": "uint64",
          "name": "carpoolingId",
          "type": "uint64"
        },
        {
          "indexed": false,
          "internalType": "address",
          "name": "user",
          "type": "address"
        },
        {
          "indexed": false,
          "internalType": "uint256",
          "name": "amount",
          "type": "uint256"
        },
        {
          "indexed": false,
          "internalType": "bool",
          "name": "cancel",
          "type": "bool"
        },
        {
          "indexed": false,
          "internalType": "bool",
          "name": "success",
          "type": "bool"
        }
      ],
      "name": "PendingSetServiceUserOption",
      "type": "event"
    },
    {
      "anonymous": false,
      "inputs": [
        {
          "indexed": false,
          "internalType": "address",
          "name": "service",
          "type": "address"
        },
        {
          "indexed": false,
          "internalType": "uint64",
          "name": "carpoolingId",
          "type": "uint64"
        },
        {
          "indexed": false,
          "internalType": "address",
          "name": "user",
          "type": "address"
        },
        {
          "indexed": false,
          "internalType": "bool",
          "name": "success",
          "type": "bool"
        }
      ],
      "name": "SetServiceUserOption",
      "type": "event"
    },
    {
      "constant": true,
      "inputs": [],
      "name": "admin",
      "outputs": [
        {
          "internalType": "address",
          "name": "",
          "type": "address"
        }
      ],
      "payable": false,
      "stateMutability": "view",
      "type": "function"
    },
    {
      "constant": true,
      "inputs": [
        {
          "internalType": "uint256",
          "name": "",
          "type": "uint256"
        }
      ],
      "name": "carpoolingAddress",
      "outputs": [
        {
          "internalType": "address",
          "name": "",
          "type": "address"
        }
      ],
      "payable": false,
      "stateMutability": "view",
      "type": "function"
    },
    {
      "constant": true,
      "inputs": [
        {
          "internalType": "uint256",
          "name": "",
          "type": "uint256"
        }
      ],
      "name": "carpoolingIds",
      "outputs": [
        {
          "internalType": "uint64",
          "name": "",
          "type": "uint64"
        }
      ],
      "payable": false,
      "stateMutability": "view",
      "type": "function"
    },
    {
      "constant": false,
      "inputs": [
        {
          "internalType": "string",
          "name": "origin",
          "type": "string"
        },
        {
          "internalType": "string",
          "name": "destination",
          "type": "string"
        },
        {
          "internalType": "uint8",
          "name": "nSlot",
          "type": "uint8"
        },
        {
          "internalType": "uint256",
          "name": "price",
          "type": "uint256"
        },
        {
          "internalType": "uint256",
          "name": "startTime",
          "type": "uint256"
        },
        {
          "internalType": "address payable",
          "name": "conflictOwner",
          "type": "address"
        },
        {
          "internalType": "enum metaVariables.ModeConflict",
          "name": "modeConflict",
          "type": "uint8"
        }
      ],
      "name": "createCarpooling",
      "outputs": [],
      "payable": false,
      "stateMutability": "nonpayable",
      "type": "function"
    },
    {
      "constant": true,
      "inputs": [
        {
          "internalType": "uint64",
          "name": "index",
          "type": "uint64"
        }
      ],
      "name": "getCarpoolingAddressUsingIndex",
      "outputs": [
        {
          "internalType": "address",
          "name": "",
          "type": "address"
        }
      ],
      "payable": false,
      "stateMutability": "view",
      "type": "function"
    },
    {
      "constant": false,
      "inputs": [],
      "name": "askServiceSafeRegistry",
      "outputs": [],
      "payable": false,
      "stateMutability": "nonpayable",
      "type": "function"
    },
    {
      "constant": false,
      "inputs": [
        {
          "internalType": "address",
          "name": "service",
          "type": "address"
        },
        {
          "internalType": "enum CarpoolingFactory.SafeRegistryState",
          "name": "status",
          "type": "uint8"
        }
      ],
      "name": "setServiceSafeRegistry",
      "outputs": [],
      "payable": false,
      "stateMutability": "nonpayable",
      "type": "function"
    },
    {
      "constant": true,
      "inputs": [
        {
          "internalType": "address",
          "name": "service",
          "type": "address"
        }
      ],
      "name": "getServiceSafeRegistry",
      "outputs": [
        {
          "internalType": "enum CarpoolingFactory.SafeRegistryState",
          "name": "",
          "type": "uint8"
        }
      ],
      "payable": false,
      "stateMutability": "view",
      "type": "function"
    },
    {
      "constant": false,
      "inputs": [
        {
          "internalType": "address",
          "name": "service",
          "type": "address"
        },
        {
          "internalType": "uint64",
          "name": "carpoolingId",
          "type": "uint64"
        },
        {
          "internalType": "address",
          "name": "user",
          "type": "address"
        },
        {
          "internalType": "uint256",
          "name": "amount",
          "type": "uint256"
        },
        {
          "internalType": "bool",
          "name": "cancel",
          "type": "bool"
        }
      ],
      "name": "setPendingServiceCarpoolingUserOption",
      "outputs": [],
      "payable": false,
      "stateMutability": "nonpayable",
      "type": "function"
    },
    {
      "constant": false,
      "inputs": [
        {
          "internalType": "uint64",
          "name": "carpoolingId",
          "type": "uint64"
        },
        {
          "internalType": "address",
          "name": "user",
          "type": "address"
        },
        {
          "internalType": "bool",
          "name": "success",
          "type": "bool"
        }
      ],
      "name": "setServiceCarpoolingUserOption",
      "outputs": [],
      "payable": false,
      "stateMutability": "nonpayable",
      "type": "function"
    }
  ],
  "bytecode": "0x608060405234801561001057600080fd5b50336000806101000a81548173ffffffffffffffffffffffffffffffffffffffff021916908373ffffffffffffffffffffffffffffffffffffffff160217905550615de3806100606000396000f3fe60806040523480156200001157600080fd5b5060043610620000ac5760003560e01c80638f7dd0c6116200006f5780638f7dd0c614620003ab578063a2c6075b14620003ff578063d0dfbb271462000490578063f444cda014620004fa578063f851a440146200056157620000ac565b806309c639f314620000b15780630a49e425146200025a57806329e2514c14620002d55780632ad7c3a7146200032e578063517b5c40146200039f575b600080fd5b62000258600480360360e0811015620000c957600080fd5b8101908080359060200190640100000000811115620000e757600080fd5b820183602082011115620000fa57600080fd5b803590602001918460018302840111640100000000831117156200011d57600080fd5b91908080601f016020809104026020016040519081016040528093929190818152602001838380828437600081840152601f19601f820116905080830192505050505050509192919290803590602001906401000000008111156200018157600080fd5b8201836020820111156200019457600080fd5b80359060200191846001830284011164010000000083111715620001b757600080fd5b91908080601f016020809104026020016040519081016040528093929190818152602001838380828437600081840152601f19601f820116905080830192505050505050509192919290803560ff1690602001909291908035906020019092919080359060200190929190803573ffffffffffffffffffffffffffffffffffffffff169060200190929190803560ff169060200190929190505050620005ad565b005b62000293600480360360208110156200027257600080fd5b81019080803567ffffffffffffffff16906020019092919050505062000900565b604051808273ffffffffffffffffffffffffffffffffffffffff1673ffffffffffffffffffffffffffffffffffffffff16815260200191505060405180910390f35b6200030460048036036020811015620002ed57600080fd5b81019080803590602001909291905050506200094c565b604051808267ffffffffffffffff1667ffffffffffffffff16815260200191505060405180910390f35b6200035d600480360360208110156200034657600080fd5b810190808035906020019092919050505062000988565b604051808273ffffffffffffffffffffffffffffffffffffffff1673ffffffffffffffffffffffffffffffffffffffff16815260200191505060405180910390f35b620003a9620009c5565b005b620003fd60048036036040811015620003c357600080fd5b81019080803573ffffffffffffffffffffffffffffffffffffffff169060200190929190803560ff16906020019092919050505062000a29565b005b6200048e600480360360a08110156200041757600080fd5b81019080803573ffffffffffffffffffffffffffffffffffffffff169060200190929190803567ffffffffffffffff169060200190929190803573ffffffffffffffffffffffffffffffffffffffff1690602001909291908035906020019092919080351515906020019092919050505062000b51565b005b620004d560048036036020811015620004a857600080fd5b81019080803573ffffffffffffffffffffffffffffffffffffffff16906020019092919050505062000d5f565b60405180826004811115620004e657fe5b60ff16815260200191505060405180910390f35b6200055f600480360360608110156200051257600080fd5b81019080803567ffffffffffffffff169060200190929190803573ffffffffffffffffffffffffffffffffffffffff16906020019092919080351515906020019092919050505062000db5565b005b6200056b620010a1565b604051808273ffffffffffffffffffffffffffffffffffffffff1673ffffffffffffffffffffffffffffffffffffffff16815260200191505060405180910390f35b60006002805490509050600033828a8a8a8a8a8a8a604051620005d090620010c6565b808a73ffffffffffffffffffffffffffffffffffffffff1673ffffffffffffffffffffffffffffffffffffffff1681526020018967ffffffffffffffff1667ffffffffffffffff16815260200180602001806020018860ff1660ff1681526020018781526020018681526020018573ffffffffffffffffffffffffffffffffffffffff1673ffffffffffffffffffffffffffffffffffffffff1681526020018460028111156200067c57fe5b60ff16815260200183810383528a818151815260200191508051906020019080838360005b83811015620006be578082015181840152602081019050620006a1565b50505050905090810190601f168015620006ec5780820380516001836020036101000a031916815260200191505b50838103825289818151815260200191508051906020019080838360005b83811015620007275780820151818401526020810190506200070a565b50505050905090810190601f168015620007555780820380516001836020036101000a031916815260200191505b509b505050505050505050505050604051809103906000f08015801562000780573d6000803e3d6000fd5b509050600282908060018154018082558091505090600182039060005260206000209060049182820401919006600802909192909190916101000a81548167ffffffffffffffff021916908367ffffffffffffffff1602179055505060018190806001815401808255809150509060018203906000526020600020016000909192909190916101000a81548173ffffffffffffffffffffffffffffffffffffffff021916908373ffffffffffffffffffffffffffffffffffffffff160217905550507f40d872466fa3f33150a2afb5837f2966afcfc5c886f2e91163ec72c5a6f2b9be338383604051808473ffffffffffffffffffffffffffffffffffffffff1673ffffffffffffffffffffffffffffffffffffffff1681526020018367ffffffffffffffff1667ffffffffffffffff1681526020018273ffffffffffffffffffffffffffffffffffffffff1673ffffffffffffffffffffffffffffffffffffffff168152602001935050505060405180910390a1505050505050505050565b600060018267ffffffffffffffff16815481106200091a57fe5b9060005260206000200160009054906101000a900473ffffffffffffffffffffffffffffffffffffffff169050919050565b600281815481106200095a57fe5b9060005260206000209060049182820401919006600802915054906101000a900467ffffffffffffffff1681565b600181815481106200099657fe5b906000526020600020016000915054906101000a900473ffffffffffffffffffffffffffffffffffffffff1681565b6001600360003373ffffffffffffffffffffffffffffffffffffffff1673ffffffffffffffffffffffffffffffffffffffff16815260200190815260200160002060006101000a81548160ff0219169083600481111562000a2257fe5b0217905550565b6000809054906101000a900473ffffffffffffffffffffffffffffffffffffffff1673ffffffffffffffffffffffffffffffffffffffff163373ffffffffffffffffffffffffffffffffffffffff161462000aec576040517f08c379a00000000000000000000000000000000000000000000000000000000081526004018080602001828103825260188152602001807f4f6e6c79207468652061646d696e2063616e20646f206974000000000000000081525060200191505060405180910390fd5b80600360008473ffffffffffffffffffffffffffffffffffffffff1673ffffffffffffffffffffffffffffffffffffffff16815260200190815260200160002060006101000a81548160ff0219169083600481111562000b4857fe5b02179055505050565b60008090506002600481111562000b6457fe5b600360008873ffffffffffffffffffffffffffffffffffffffff1673ffffffffffffffffffffffffffffffffffffffff16815260200190815260200160002060009054906101000a900460ff16600481111562000bbd57fe5b141562000c84576001600460008873ffffffffffffffffffffffffffffffffffffffff1673ffffffffffffffffffffffffffffffffffffffff16815260200190815260200160002060008767ffffffffffffffff1667ffffffffffffffff16815260200190815260200160002060008673ffffffffffffffffffffffffffffffffffffffff1673ffffffffffffffffffffffffffffffffffffffff16815260200190815260200160002060006101000a81548160ff021916908360ff160217905550600190505b7f41d4240c3cfe35c720238df5b12e7c49adc4439def2c13f4a60093f92363a752868686868686604051808773ffffffffffffffffffffffffffffffffffffffff1673ffffffffffffffffffffffffffffffffffffffff1681526020018667ffffffffffffffff1667ffffffffffffffff1681526020018573ffffffffffffffffffffffffffffffffffffffff1673ffffffffffffffffffffffffffffffffffffffff1681526020018481526020018315151515815260200182151515158152602001965050505050505060405180910390a1505050505050565b6000600360008373ffffffffffffffffffffffffffffffffffffffff1673ffffffffffffffffffffffffffffffffffffffff16815260200190815260200160002060009054906101000a900460ff169050919050565b60011515811515141562000f2c57600460003373ffffffffffffffffffffffffffffffffffffffff1673ffffffffffffffffffffffffffffffffffffffff16815260200190815260200160002060008467ffffffffffffffff1667ffffffffffffffff16815260200190815260200160002060008373ffffffffffffffffffffffffffffffffffffffff1673ffffffffffffffffffffffffffffffffffffffff16815260200190815260200160002060009054906101000a900460ff16600560003373ffffffffffffffffffffffffffffffffffffffff1673ffffffffffffffffffffffffffffffffffffffff16815260200190815260200160002060008567ffffffffffffffff1667ffffffffffffffff16815260200190815260200160002060008473ffffffffffffffffffffffffffffffffffffffff1673ffffffffffffffffffffffffffffffffffffffff16815260200190815260200160002060006101000a81548160ff021916908360ff1602179055505b600460003373ffffffffffffffffffffffffffffffffffffffff1673ffffffffffffffffffffffffffffffffffffffff16815260200190815260200160002060008467ffffffffffffffff1667ffffffffffffffff16815260200190815260200160002060008373ffffffffffffffffffffffffffffffffffffffff1673ffffffffffffffffffffffffffffffffffffffff16815260200190815260200160002060006101000a81549060ff02191690557f5c5e623cbf5db77a617583adbe98a8f2b5ecad53a16ecb2faf1add86985be9ca33848484604051808573ffffffffffffffffffffffffffffffffffffffff1673ffffffffffffffffffffffffffffffffffffffff1681526020018467ffffffffffffffff1667ffffffffffffffff1681526020018373ffffffffffffffffffffffffffffffffffffffff1673ffffffffffffffffffffffffffffffffffffffff1681526020018215151515815260200194505050505060405180910390a1505050565b6000809054906101000a900473ffffffffffffffffffffffffffffffffffffffff1681565b614cda80620010d58339019056fe60806040523480156200001157600080fd5b5060405162004cda38038062004cda83398181016040526101208110156200003857600080fd5b810190808051906020019092919080519060200190929190805160405193929190846401000000008211156200006d57600080fd5b838201915060208201858111156200008457600080fd5b8251866001820283011164010000000082111715620000a257600080fd5b8083526020830192505050908051906020019080838360005b83811015620000d8578082015181840152602081019050620000bb565b50505050905090810190601f168015620001065780820380516001836020036101000a031916815260200191505b50604052602001805160405193929190846401000000008211156200012a57600080fd5b838201915060208201858111156200014157600080fd5b82518660018202830111640100000000821117156200015f57600080fd5b8083526020830192505050908051906020019080838360005b838110156200019557808201518184015260208101905062000178565b50505050905090810190601f168015620001c35780820380516001836020036101000a031916815260200191505b50604052602001805190602001909291908051906020019092919080519060200190929190805190602001909291908051906020019092919050505088888888888888888888600060086101000a81548173ffffffffffffffffffffffffffffffffffffffff021916908373ffffffffffffffffffffffffffffffffffffffff160217905550876000806101000a81548167ffffffffffffffff021916908367ffffffffffffffff16021790555081600160006101000a81548173ffffffffffffffffffffffffffffffffffffffff021916908373ffffffffffffffffffffffffffffffffffffffff1602179055508660029080519060200190620002ca929190620004c2565b508560039080519060200190620002e3929190620004c2565b5084600460006101000a81548160ff021916908360ff160217905550600460009054906101000a900460ff16600460016101000a81548160ff021916908360ff160217905550836005819055508260068190555080600760036101000a81548160ff021916908360028111156200035657fe5b021790555033600e60006101000a81548173ffffffffffffffffffffffffffffffffffffffff021916908373ffffffffffffffffffffffffffffffffffffffff1602179055506001600860008060089054906101000a900473ffffffffffffffffffffffffffffffffffffffff1673ffffffffffffffffffffffffffffffffffffffff1673ffffffffffffffffffffffffffffffffffffffff16815260200190815260200160002060040160006101000a81548160ff021916908360048111156200041d57fe5b02179055506009600060089054906101000a900473ffffffffffffffffffffffffffffffffffffffff1690806001815401808255809150509060018203906000526020600020016000909192909190916101000a81548173ffffffffffffffffffffffffffffffffffffffff021916908373ffffffffffffffffffffffffffffffffffffffff1602179055505050505050505050505050505050505050505062000571565b828054600181600116156101000203166002900490600052602060002090601f016020900481019282601f106200050557805160ff191683800117855562000536565b8280016001018555821562000536579182015b828111156200053557825182559160200191906001019062000518565b5b50905062000545919062000549565b5090565b6200056e91905b808211156200056a57600081600090555060010162000550565b5090565b90565b61475980620005816000396000f3fe6080604052600436106102465760003560e01c8063a035b1fe11610139578063c5c0b986116100b6578063dd1cde2f1161007a578063dd1cde2f14610f0c578063df018fbb14610f69578063e71eafb814610f9a578063edf8e24514610fcb578063f0e65d0f14611009578063fdfbef771461108757610246565b8063c5c0b98614610d93578063d026cd9814610dd0578063d6ba650114610e55578063d9ca617014610e86578063db6290ad14610edd57610246565b8063b269681d116100fd578063b269681d14610bc8578063be1ccdaf14610c58578063c005c9e814610cd3578063c403a44514610d17578063c54916c214610d2e57610246565b8063a035b1fe146109ee578063a0a934ff14610a19578063a2c12c2514610ab4578063a9059cbb14610b05578063ae5faaf714610b7857610246565b806360b07118116101c757806378e979251161018b57806378e97925146108265780637c3098f3146108515780638da5cb5b14610882578063938b5f32146108d957806393bb67aa1461096957610246565b806360b071181461069a578063621330c5146106e457806369ccbdbd1461071d57806370a082311461078857806370a94683146107ed57610246565b8063449dbd5d1161020e578063449dbd5d1461043e57806355404ace146104c3578063576351481461055e5780635be337ba146106045780635f78a9301461066957610246565b80630d7dc8571461024b5780631e1f7904146102c65780631e6b0a0514610317578063407386e814610374578063416ae768146103cb575b600080fd5b34801561025757600080fd5b506102846004803603602081101561026e57600080fd5b81019080803590602001909291905050506110f0565b604051808273ffffffffffffffffffffffffffffffffffffffff1673ffffffffffffffffffffffffffffffffffffffff16815260200191505060405180910390f35b3480156102d257600080fd5b50610315600480360360208110156102e957600080fd5b81019080803573ffffffffffffffffffffffffffffffffffffffff16906020019092919050505061112c565b005b34801561032357600080fd5b506103726004803603604081101561033a57600080fd5b81019080803573ffffffffffffffffffffffffffffffffffffffff16906020019092919080351515906020019092919050505061121a565b005b34801561038057600080fd5b506103896115fb565b604051808273ffffffffffffffffffffffffffffffffffffffff1673ffffffffffffffffffffffffffffffffffffffff16815260200191505060405180910390f35b3480156103d757600080fd5b5061041a600480360360208110156103ee57600080fd5b81019080803573ffffffffffffffffffffffffffffffffffffffff169060200190929190505050611621565b6040518082600481111561042a57fe5b60ff16815260200191505060405180910390f35b34801561044a57600080fd5b506104ad6004803603604081101561046157600080fd5b81019080803573ffffffffffffffffffffffffffffffffffffffff169060200190929190803573ffffffffffffffffffffffffffffffffffffffff16906020019092919050505061167a565b6040518082815260200191505060405180910390f35b3480156104cf57600080fd5b5061051c600480360360408110156104e657600080fd5b81019080803573ffffffffffffffffffffffffffffffffffffffff16906020019092919080359060200190929190505050611701565b604051808273ffffffffffffffffffffffffffffffffffffffff1673ffffffffffffffffffffffffffffffffffffffff16815260200191505060405180910390f35b34801561056a57600080fd5b506105ad6004803603602081101561058157600080fd5b81019080803573ffffffffffffffffffffffffffffffffffffffff16906020019092919050505061174c565b6040518080602001828103825283818151815260200191508051906020019060200280838360005b838110156105f05780820151818401526020810190506105d5565b505050509050019250505060405180910390f35b34801561061057600080fd5b506106536004803603602081101561062757600080fd5b81019080803573ffffffffffffffffffffffffffffffffffffffff169060200190929190505050611819565b6040518082815260200191505060405180910390f35b6106986004803603602081101561067f57600080fd5b81019080803560ff169060200190929190505050611865565b005b3480156106a657600080fd5b506106e2600480360360408110156106bd57600080fd5b81019080803560ff169060200190929190803515159060200190929190505050611d44565b005b3480156106f057600080fd5b506106f9611fcd565b6040518082600281111561070957fe5b60ff16815260200191505060405180910390f35b34801561072957600080fd5b5061076c6004803603602081101561074057600080fd5b81019080803573ffffffffffffffffffffffffffffffffffffffff169060200190929190505050611fe0565b604051808260ff1660ff16815260200191505060405180910390f35b34801561079457600080fd5b506107d7600480360360208110156107ab57600080fd5b81019080803573ffffffffffffffffffffffffffffffffffffffff169060200190929190505050612039565b6040518082815260200191505060405180910390f35b3480156107f957600080fd5b50610802612085565b6040518082600481111561081257fe5b60ff16815260200191505060405180910390f35b34801561083257600080fd5b5061083b612098565b6040518082815260200191505060405180910390f35b34801561085d57600080fd5b5061086661209e565b604051808260ff1660ff16815260200191505060405180910390f35b34801561088e57600080fd5b506108976120b1565b604051808273ffffffffffffffffffffffffffffffffffffffff1673ffffffffffffffffffffffffffffffffffffffff16815260200191505060405180910390f35b3480156108e557600080fd5b506108ee6120d7565b6040518080602001828103825283818151815260200191508051906020019080838360005b8381101561092e578082015181840152602081019050610913565b50505050905090810190601f16801561095b5780820380516001836020036101000a031916815260200191505b509250505060405180910390f35b34801561097557600080fd5b506109d86004803603604081101561098c57600080fd5b81019080803573ffffffffffffffffffffffffffffffffffffffff169060200190929190803573ffffffffffffffffffffffffffffffffffffffff169060200190929190505050612175565b6040518082815260200191505060405180910390f35b3480156109fa57600080fd5b50610a0361219a565b6040518082815260200191505060405180910390f35b348015610a2557600080fd5b50610a6860048036036020811015610a3c57600080fd5b81019080803573ffffffffffffffffffffffffffffffffffffffff1690602001909291905050506121a0565b604051808660ff1660ff1681526020018581526020018460ff1660ff168152602001838152602001826004811115610a9c57fe5b60ff1681526020019550505050505060405180910390f35b348015610ac057600080fd5b50610b0360048036036020811015610ad757600080fd5b81019080803573ffffffffffffffffffffffffffffffffffffffff1690602001909291905050506121fd565b005b348015610b1157600080fd5b50610b5e60048036036040811015610b2857600080fd5b81019080803573ffffffffffffffffffffffffffffffffffffffff16906020019092919080359060200190929190505050612329565b604051808215151515815260200191505060405180910390f35b610bc660048036036040811015610b8e57600080fd5b81019080803573ffffffffffffffffffffffffffffffffffffffff1690602001909291908035151590602001909291905050506124f2565b005b348015610bd457600080fd5b50610bdd6128b3565b6040518080602001828103825283818151815260200191508051906020019080838360005b83811015610c1d578082015181840152602081019050610c02565b50505050905090810190601f168015610c4a5780820380516001836020036101000a031916815260200191505b509250505060405180910390f35b348015610c6457600080fd5b50610c9160048036036020811015610c7b57600080fd5b8101908080359060200190929190505050612951565b604051808273ffffffffffffffffffffffffffffffffffffffff1673ffffffffffffffffffffffffffffffffffffffff16815260200191505060405180910390f35b610d1560048036036020811015610ce957600080fd5b81019080803573ffffffffffffffffffffffffffffffffffffffff16906020019092919050505061298d565b005b348015610d2357600080fd5b50610d2c612ba9565b005b348015610d3a57600080fd5b50610d7d60048036036020811015610d5157600080fd5b81019080803573ffffffffffffffffffffffffffffffffffffffff169060200190929190505050612c7b565b6040518082815260200191505060405180910390f35b348015610d9f57600080fd5b50610dce60048036036020811015610db657600080fd5b81019080803515159060200190929190505050612e0d565b005b348015610ddc57600080fd5b50610e3f60048036036040811015610df357600080fd5b81019080803573ffffffffffffffffffffffffffffffffffffffff169060200190929190803573ffffffffffffffffffffffffffffffffffffffff169060200190929190505050613162565b6040518082815260200191505060405180910390f35b348015610e6157600080fd5b50610e6a613187565b604051808260ff1660ff16815260200191505060405180910390f35b348015610e9257600080fd5b50610e9b61319a565b604051808273ffffffffffffffffffffffffffffffffffffffff1673ffffffffffffffffffffffffffffffffffffffff16815260200191505060405180910390f35b348015610ee957600080fd5b50610ef26131c0565b604051808215151515815260200191505060405180910390f35b348015610f1857600080fd5b50610f6760048036036040811015610f2f57600080fd5b81019080803573ffffffffffffffffffffffffffffffffffffffff169060200190929190803515159060200190929190505050613326565b005b348015610f7557600080fd5b50610f7e61345d565b604051808260ff1660ff16815260200191505060405180910390f35b348015610fa657600080fd5b50610faf613470565b604051808260ff1660ff16815260200191505060405180910390f35b348015610fd757600080fd5b5061100760048036036020811015610fee57600080fd5b81019080803560ff169060200190929190505050613483565b005b34801561101557600080fd5b506110456004803603602081101561102c57600080fd5b81019080803560ff169060200190929190505050613748565b604051808273ffffffffffffffffffffffffffffffffffffffff1673ffffffffffffffffffffffffffffffffffffffff16815260200191505060405180910390f35b34801561109357600080fd5b506110d6600480360360208110156110aa57600080fd5b81019080803573ffffffffffffffffffffffffffffffffffffffff16906020019092919050505061378c565b604051808215151515815260200191505060405180910390f35b600981815481106110fd57fe5b906000526020600020016000915054906101000a900473ffffffffffffffffffffffffffffffffffffffff1681565b600115156111398261378c565b15151480156111ad57506000600481111561115057fe5b600860008373ffffffffffffffffffffffffffffffffffffffff1673ffffffffffffffffffffffffffffffffffffffff16815260200190815260200160002060040160009054906101000a900460ff1660048111156111ab57fe5b145b15611217576001600860008373ffffffffffffffffffffffffffffffffffffffff1673ffffffffffffffffffffffffffffffffffffffff16815260200190815260200160002060040160006101000a81548160ff0219169083600481111561121157fe5b02179055505b50565b6000600a60008473ffffffffffffffffffffffffffffffffffffffff1673ffffffffffffffffffffffffffffffffffffffff16815260200190815260200160002060003373ffffffffffffffffffffffffffffffffffffffff1673ffffffffffffffffffffffffffffffffffffffff16815260200190815260200160002054116112ef576040517f08c379a00000000000000000000000000000000000000000000000000000000081526004018080602001828103825260398152602001806146416039913960400191505060405180910390fd5b60011515811515141561140757600a60008373ffffffffffffffffffffffffffffffffffffffff1673ffffffffffffffffffffffffffffffffffffffff16815260200190815260200160002060003373ffffffffffffffffffffffffffffffffffffffff1673ffffffffffffffffffffffffffffffffffffffff16815260200190815260200160002054600b60008473ffffffffffffffffffffffffffffffffffffffff1673ffffffffffffffffffffffffffffffffffffffff16815260200190815260200160002060003373ffffffffffffffffffffffffffffffffffffffff1673ffffffffffffffffffffffffffffffffffffffff168152602001908152602001600020600082825401925050819055506114d4565b600a60008373ffffffffffffffffffffffffffffffffffffffff1673ffffffffffffffffffffffffffffffffffffffff16815260200190815260200160002060003373ffffffffffffffffffffffffffffffffffffffff1673ffffffffffffffffffffffffffffffffffffffff16815260200190815260200160002054600860008473ffffffffffffffffffffffffffffffffffffffff1673ffffffffffffffffffffffffffffffffffffffff168152602001908152602001600020600301600082825401925050819055505b600a60008373ffffffffffffffffffffffffffffffffffffffff1673ffffffffffffffffffffffffffffffffffffffff16815260200190815260200160002060003373ffffffffffffffffffffffffffffffffffffffff1673ffffffffffffffffffffffffffffffffffffffff168152602001908152602001600020600090557f61e85bdd61db6c57325ecb70b9eb52e703b99eaf0dc831dec876fbfad94c66a2823383604051808473ffffffffffffffffffffffffffffffffffffffff1673ffffffffffffffffffffffffffffffffffffffff1681526020018373ffffffffffffffffffffffffffffffffffffffff1673ffffffffffffffffffffffffffffffffffffffff16815260200182151515158152602001935050505060405180910390a15050565b600e60009054906101000a900473ffffffffffffffffffffffffffffffffffffffff1681565b6000600860008373ffffffffffffffffffffffffffffffffffffffff1673ffffffffffffffffffffffffffffffffffffffff16815260200190815260200160002060040160009054906101000a900460ff169050919050565b6000600b60008473ffffffffffffffffffffffffffffffffffffffff1673ffffffffffffffffffffffffffffffffffffffff16815260200190815260200160002060008373ffffffffffffffffffffffffffffffffffffffff1673ffffffffffffffffffffffffffffffffffffffff16815260200190815260200160002054905092915050565b600c602052816000526040600020818154811061171a57fe5b906000526020600020016000915091509054906101000a900473ffffffffffffffffffffffffffffffffffffffff1681565b6060600c60008373ffffffffffffffffffffffffffffffffffffffff1673ffffffffffffffffffffffffffffffffffffffff16815260200190815260200160002080548060200260200160405190810160405280929190818152602001828054801561180d57602002820191906000526020600020905b8160009054906101000a900473ffffffffffffffffffffffffffffffffffffffff1673ffffffffffffffffffffffffffffffffffffffff16815260200190600101908083116117c3575b50505050509050919050565b6000600860008373ffffffffffffffffffffffffffffffffffffffff1673ffffffffffffffffffffffffffffffffffffffff168152602001908152602001600020600101549050919050565b60008160ff16116118de576040517f08c379a00000000000000000000000000000000000000000000000000000000081526004018080602001828103825260148152602001807f426f6f6b206174206c65617374203120736c6f7400000000000000000000000081525060200191505060405180910390fd5b600460019054906101000a900460ff1660ff168160ff161115611969576040517f08c379a000000000000000000000000000000000000000000000000000000000815260040180806020018281038252601a8152602001807f4e6f7420656e6f75676820736c6f7420617661696c61626c652100000000000081525060200191505060405180910390fd5b348160ff1660055402146119e5576040517f08c379a00000000000000000000000000000000000000000000000000000000081526004018080602001828103825260158152602001807f506179207468652072696768742070726963652021000000000000000000000081525060200191505060405180910390fd5b80600460018282829054906101000a900460ff160392506101000a81548160ff021916908360ff1602179055506000600860003373ffffffffffffffffffffffffffffffffffffffff1673ffffffffffffffffffffffffffffffffffffffff16815260200190815260200160002060020160009054906101000a900460ff16600860003373ffffffffffffffffffffffffffffffffffffffff1673ffffffffffffffffffffffffffffffffffffffff16815260200190815260200160002060000160009054906101000a900460ff160160ff161115611b655780600860003373ffffffffffffffffffffffffffffffffffffffff1673ffffffffffffffffffffffffffffffffffffffff16815260200190815260200160002060000160006101000a81548160ff021916908360ff16021790555034600860003373ffffffffffffffffffffffffffffffffffffffff1673ffffffffffffffffffffffffffffffffffffffff16815260200190815260200160002060010181905550611cc8565b6040518060a001604052808260ff168152602001348152602001600060ff1681526020016000815260200160006004811115611b9d57fe5b815250600860003373ffffffffffffffffffffffffffffffffffffffff1673ffffffffffffffffffffffffffffffffffffffff16815260200190815260200160002060008201518160000160006101000a81548160ff021916908360ff1602179055506020820151816001015560408201518160020160006101000a81548160ff021916908360ff1602179055506060820151816003015560808201518160040160006101000a81548160ff02191690836004811115611c5957fe5b021790555090505060093390806001815401808255809150509060018203906000526020600020016000909192909190916101000a81548173ffffffffffffffffffffffffffffffffffffffff021916908373ffffffffffffffffffffffffffffffffffffffff160217905550505b7f3123a8179d2f2435d706214855478ff21595ece2d7099582e79404c7da663dc2338234604051808473ffffffffffffffffffffffffffffffffffffffff1673ffffffffffffffffffffffffffffffffffffffff1681526020018360ff1660ff168152602001828152602001935050505060405180910390a150565b600060089054906101000a900473ffffffffffffffffffffffffffffffffffffffff1673ffffffffffffffffffffffffffffffffffffffff163373ffffffffffffffffffffffffffffffffffffffff1614611e07576040517f08c379a000000000000000000000000000000000000000000000000000000000815260040180806020018281038252601a8152602001807f4f6e6c7920746865206f776e65722063616e20646f206974202100000000000081525060200191505060405180910390fd5b60008260ff1611611e80576040517f08c379a00000000000000000000000000000000000000000000000000000000081526004018080602001828103825260118152602001807f6e536c6f74206d757374206265203e203000000000000000000000000000000081525060200191505060405180910390fd5b600115158115151415611f2d5760ff600460019054906101000a900460ff16830160ff161115611efb576040517f08c379a000000000000000000000000000000000000000000000000000000000815260040180806020018281038252602a8152602001806145ee602a913960400191505060405180910390fd5b81600460018282829054906101000a900460ff160192506101000a81548160ff021916908360ff160217905550611fc9565b8160ff16600460019054906101000a900460ff1660ff161015611f9b576040517f08c379a00000000000000000000000000000000000000000000000000000000081526004018080602001828103825260298152602001806146186029913960400191505060405180910390fd5b81600460018282829054906101000a900460ff160392506101000a81548160ff021916908360ff1602179055505b5050565b600760039054906101000a900460ff1681565b6000600860008373ffffffffffffffffffffffffffffffffffffffff1673ffffffffffffffffffffffffffffffffffffffff16815260200190815260200160002060020160009054906101000a900460ff169050919050565b6000600860008373ffffffffffffffffffffffffffffffffffffffff1673ffffffffffffffffffffffffffffffffffffffff168152602001908152602001600020600301549050919050565b600760009054906101000a900460ff1681565b60065481565b600760019054906101000a900460ff1681565b600060089054906101000a900473ffffffffffffffffffffffffffffffffffffffff1681565b60028054600181600116156101000203166002900480601f01602080910402602001604051908101604052809291908181526020018280546001816001161561010002031660029004801561216d5780601f106121425761010080835404028352916020019161216d565b820191906000526020600020905b81548152906001019060200180831161215057829003601f168201915b505050505081565b600b602052816000526040600020602052806000526040600020600091509150505481565b60055481565b60086020528060005260406000206000915090508060000160009054906101000a900460ff16908060010154908060020160009054906101000a900460ff16908060030154908060040160009054906101000a900460ff16905085565b600060089054906101000a900473ffffffffffffffffffffffffffffffffffffffff1673ffffffffffffffffffffffffffffffffffffffff163373ffffffffffffffffffffffffffffffffffffffff16146122c0576040517f08c379a000000000000000000000000000000000000000000000000000000000815260040180806020018281038252601a8152602001807f4f6e6c7920746865206f776e65722063616e20646f206974202100000000000081525060200191505060405180910390fd5b600d8190806001815401808255809150509060018203906000526020600020016000909192909190916101000a81548173ffffffffffffffffffffffffffffffffffffffff021916908373ffffffffffffffffffffffffffffffffffffffff1602179055505050565b600081600860003373ffffffffffffffffffffffffffffffffffffffff1673ffffffffffffffffffffffffffffffffffffffff1681526020019081526020016000206003015410156123e3576040517f08c379a000000000000000000000000000000000000000000000000000000000815260040180806020018281038252601a8152602001807f796f752068617665206e6f7420656e6f75676820746f6b656e7300000000000081525060200191505060405180910390fd5b81600860003373ffffffffffffffffffffffffffffffffffffffff1673ffffffffffffffffffffffffffffffffffffffff1681526020019081526020016000206003016000828254039250508190555081600860008573ffffffffffffffffffffffffffffffffffffffff1673ffffffffffffffffffffffffffffffffffffffff168152602001908152602001600020600301600082825401925050819055508273ffffffffffffffffffffffffffffffffffffffff163373ffffffffffffffffffffffffffffffffffffffff167fddf252ad1be2c89b69c2b068fc378daa952ba7f163c4a11628f55a4df523b3ef846040518082815260200191505060405180910390a36001905092915050565b6000341015612569576040517f08c379a000000000000000000000000000000000000000000000000000000000815260040180806020018281038252601a8152602001807f70726963652073657276696365206d757374206265203e3d203000000000000081525060200191505060405180910390fd5b600115158115151480156125f957506000600a60003373ffffffffffffffffffffffffffffffffffffffff1673ffffffffffffffffffffffffffffffffffffffff16815260200190815260200160002060008473ffffffffffffffffffffffffffffffffffffffff1673ffffffffffffffffffffffffffffffffffffffff16815260200190815260200160002054115b1561275157600a60003373ffffffffffffffffffffffffffffffffffffffff1673ffffffffffffffffffffffffffffffffffffffff16815260200190815260200160002060008373ffffffffffffffffffffffffffffffffffffffff1673ffffffffffffffffffffffffffffffffffffffff16815260200190815260200160002054600860003373ffffffffffffffffffffffffffffffffffffffff1673ffffffffffffffffffffffffffffffffffffffff168152602001908152602001600020600301600082825401925050819055506000600a60003373ffffffffffffffffffffffffffffffffffffffff1673ffffffffffffffffffffffffffffffffffffffff16815260200190815260200160002060008473ffffffffffffffffffffffffffffffffffffffff1673ffffffffffffffffffffffffffffffffffffffff1681526020019081526020016000208190555061288d565b60001515811515141561288c5734600a60003373ffffffffffffffffffffffffffffffffffffffff1673ffffffffffffffffffffffffffffffffffffffff16815260200190815260200160002060008473ffffffffffffffffffffffffffffffffffffffff1673ffffffffffffffffffffffffffffffffffffffff16815260200190815260200160002060008282540192505081905550600c60003373ffffffffffffffffffffffffffffffffffffffff1673ffffffffffffffffffffffffffffffffffffffff1681526020019081526020016000208290806001815401808255809150509060018203906000526020600020016000909192909190916101000a81548173ffffffffffffffffffffffffffffffffffffffff021916908373ffffffffffffffffffffffffffffffffffffffff160217905550505b5b6128af826000809054906101000a900467ffffffffffffffff16333485613881565b5050565b60038054600181600116156101000203166002900480601f0160208091040260200160405190810160405280929190818152602001828054600181600116156101000203166002900480156129495780601f1061291e57610100808354040283529160200191612949565b820191906000526020600020905b81548152906001019060200180831161292c57829003601f168201915b505050505081565b600d818154811061295e57fe5b906000526020600020016000915054906101000a900473ffffffffffffffffffffffffffffffffffffffff1681565b6000600860003373ffffffffffffffffffffffffffffffffffffffff1673ffffffffffffffffffffffffffffffffffffffff1681526020019081526020016000206003015411612a28576040517f08c379a00000000000000000000000000000000000000000000000000000000081526004018080602001828103825260268152602001806146d16026913960400191505060405180910390fd5b8073ffffffffffffffffffffffffffffffffffffffff166108fc600860003373ffffffffffffffffffffffffffffffffffffffff1673ffffffffffffffffffffffffffffffffffffffff168152602001908152602001600020600301549081150290604051600060405180830381858888f19350505050158015612ab0573d6000803e3d6000fd5b506000600860003373ffffffffffffffffffffffffffffffffffffffff1673ffffffffffffffffffffffffffffffffffffffff168152602001908152602001600020600301819055507fd7dee2702d63ad89917b6a4da9981c90c4d24f8c2bdfd64c604ecae57d8d065181600860003373ffffffffffffffffffffffffffffffffffffffff1673ffffffffffffffffffffffffffffffffffffffff16815260200190815260200160002060030154604051808373ffffffffffffffffffffffffffffffffffffffff1673ffffffffffffffffffffffffffffffffffffffff1681526020018281526020019250505060405180910390a150565b600060089054906101000a900473ffffffffffffffffffffffffffffffffffffffff1673ffffffffffffffffffffffffffffffffffffffff163373ffffffffffffffffffffffffffffffffffffffff1614612c6c576040517f08c379a000000000000000000000000000000000000000000000000000000000815260040180806020018281038252601a8152602001807f4f6e6c7920746865206f776e65722063616e20646f206974202100000000000081525060200191505060405180910390fd5b612c7960016000806139ab565b565b6000818073ffffffffffffffffffffffffffffffffffffffff163373ffffffffffffffffffffffffffffffffffffffff161480612d055750600060089054906101000a900473ffffffffffffffffffffffffffffffffffffffff1673ffffffffffffffffffffffffffffffffffffffff163373ffffffffffffffffffffffffffffffffffffffff16145b80612d5d5750600160009054906101000a900473ffffffffffffffffffffffffffffffffffffffff1673ffffffffffffffffffffffffffffffffffffffff163373ffffffffffffffffffffffffffffffffffffffff16145b612db2576040517f08c379a00000000000000000000000000000000000000000000000000000000081526004018080602001828103825260418152602001806145ad6041913960600191505060405180910390fd5b600860008473ffffffffffffffffffffffffffffffffffffffff1673ffffffffffffffffffffffffffffffffffffffff16815260200190815260200160002060000160009054906101000a900460ff1660ff16915050919050565b60016004811115612e1a57fe5b600860003373ffffffffffffffffffffffffffffffffffffffff1673ffffffffffffffffffffffffffffffffffffffff16815260200190815260200160002060040160009054906101000a900460ff166004811115612e7557fe5b14612ecb576040517f08c379a00000000000000000000000000000000000000000000000000000000081526004018080602001828103825260288152602001806145856028913960400191505060405180910390fd5b6000600860003373ffffffffffffffffffffffffffffffffffffffff1673ffffffffffffffffffffffffffffffffffffffff16815260200190815260200160002060000160009054906101000a900460ff1660ff1611612f93576040517f08c379a000000000000000000000000000000000000000000000000000000000815260040180806020018281038252601d8152602001807f796f75206d7573742068617665206e536c6f74426f6f6b6564203e203000000081525060200191505060405180910390fd5b426006541061300a576040517f08c379a00000000000000000000000000000000000000000000000000000000081526004018080602001828103825260168152602001807f737461727454696d65206d75737420626520706173740000000000000000000081525060200191505060405180910390fd5b600015158115151415613080576004600860003373ffffffffffffffffffffffffffffffffffffffff1673ffffffffffffffffffffffffffffffffffffffff16815260200190815260200160002060040160006101000a81548160ff0219169083600481111561307657fe5b021790555061315f565b6002600860003373ffffffffffffffffffffffffffffffffffffffff1673ffffffffffffffffffffffffffffffffffffffff16815260200190815260200160002060040160006101000a81548160ff021916908360048111156130df57fe5b021790555061315333600060089054906101000a900473ffffffffffffffffffffffffffffffffffffffff16600860003373ffffffffffffffffffffffffffffffffffffffff1673ffffffffffffffffffffffffffffffffffffffff16815260200190815260200160002060010154613a24565b61315e336000613bda565b5b50565b600a602052816000526040600020602052806000526040600020600091509150505481565b600460009054906101000a900460ff1681565b600160009054906101000a900473ffffffffffffffffffffffffffffffffffffffff1681565b600062015180600654014211613221576040517f08c379a000000000000000000000000000000000000000000000000000000000815260040180806020018281038252602e8152602001806146f7602e913960400191505060405180910390fd5b6000600281111561322e57fe5b600760039054906101000a900460ff16600281111561324957fe5b14801561326857506000600760019054906101000a900460ff1660ff16115b806132f65750600460019054906101000a900460ff16600460009054906101000a900460ff160360ff16600760019054906101000a900460ff1660ff161480156132d75750600160028111156132ba57fe5b600760039054906101000a900460ff1660028111156132d557fe5b145b80156132f557506001600760019054906101000a900460ff1660ff16115b5b156133115761330860016000806139ab565b60019050613323565b61331e60006001806139ab565b600090505b90565b600060089054906101000a900473ffffffffffffffffffffffffffffffffffffffff1673ffffffffffffffffffffffffffffffffffffffff163373ffffffffffffffffffffffffffffffffffffffff16146133e9576040517f08c379a000000000000000000000000000000000000000000000000000000000815260040180806020018281038252601a8152602001807f4f6e6c7920746865206f776e65722063616e20646f206974202100000000000081525060200191505060405180910390fd5b6133f38282613d03565b6001151581151514801561344957506000600860008473ffffffffffffffffffffffffffffffffffffffff1673ffffffffffffffffffffffffffffffffffffffff16815260200190815260200160002060010154145b15613459576134588283613bda565b5b5050565b600760029054906101000a900460ff1681565b600460019054906101000a900460ff1681565b6000600860003373ffffffffffffffffffffffffffffffffffffffff1673ffffffffffffffffffffffffffffffffffffffff16815260200190815260200160002060000160009054906101000a900460ff1660ff161161354b576040517f08c379a00000000000000000000000000000000000000000000000000000000081526004018080602001828103825260108152602001807f4e6f7420736c6f7420626f6f6b6564210000000000000000000000000000000081525060200191505060405180910390fd5b80600860003373ffffffffffffffffffffffffffffffffffffffff1673ffffffffffffffffffffffffffffffffffffffff16815260200190815260200160002060020160009054906101000a900460ff160160ff16600860003373ffffffffffffffffffffffffffffffffffffffff1673ffffffffffffffffffffffffffffffffffffffff16815260200190815260200160002060000160009054906101000a900460ff1660ff161015613667576040517f08c379a00000000000000000000000000000000000000000000000000000000081526004018080602001828103825260178152602001807f4e6f7420656e6f75676820736c6f7420626f6f6b65642100000000000000000081525060200191505060405180910390fd5b80600860003373ffffffffffffffffffffffffffffffffffffffff1673ffffffffffffffffffffffffffffffffffffffff16815260200190815260200160002060020160008282829054906101000a900460ff160192506101000a81548160ff021916908360ff1602179055507fcbd0e0fdf2eeda912b4fe56c962fda42403c8b609dcd482fd7ca85e5c55b00f23382604051808373ffffffffffffffffffffffffffffffffffffffff1673ffffffffffffffffffffffffffffffffffffffff1681526020018260ff1660ff1681526020019250505060405180910390a150565b6000600d8260ff168154811061375a57fe5b9060005260206000200160009054906101000a900473ffffffffffffffffffffffffffffffffffffffff169050919050565b6000805b600d805490508160ff161015613876576000600b60008573ffffffffffffffffffffffffffffffffffffffff1673ffffffffffffffffffffffffffffffffffffffff1681526020019081526020016000206000600d8460ff16815481106137f357fe5b9060005260206000200160009054906101000a900473ffffffffffffffffffffffffffffffffffffffff1673ffffffffffffffffffffffffffffffffffffffff1673ffffffffffffffffffffffffffffffffffffffff16815260200190815260200160002054141561386957600091505061387c565b8080600101915050613790565b50600190505b919050565b6000600e60009054906101000a900473ffffffffffffffffffffffffffffffffffffffff1690508073ffffffffffffffffffffffffffffffffffffffff1663a2c6075b87878787876040518663ffffffff1660e01b8152600401808673ffffffffffffffffffffffffffffffffffffffff1673ffffffffffffffffffffffffffffffffffffffff1681526020018567ffffffffffffffff1667ffffffffffffffff1681526020018473ffffffffffffffffffffffffffffffffffffffff1673ffffffffffffffffffffffffffffffffffffffff1681526020018381526020018215151515815260200195505050505050600060405180830381600087803b15801561398b57600080fd5b505af115801561399f573d6000803e3d6000fd5b50505050505050505050565b600083905060005b6009805490508160ff161015613a1d57600060098260ff16815481106139d557fe5b9060005260206000200160009054906101000a900473ffffffffffffffffffffffffffffffffffffffff169050613a0f81848888886140dd565b5080806001019150506139b3565b5050505050565b60008111613a9a576040517f08c379a000000000000000000000000000000000000000000000000000000000815260040180806020018281038252601a8152602001807f616d6f756e74526566756e646564206d757374206265203e203000000000000081525060200191505060405180910390fd5b600860008473ffffffffffffffffffffffffffffffffffffffff1673ffffffffffffffffffffffffffffffffffffffff16815260200190815260200160002060010154811115613b35576040517f08c379a00000000000000000000000000000000000000000000000000000000081526004018080602001828103825260268152602001806146ab6026913960400191505060405180910390fd5b80600860008573ffffffffffffffffffffffffffffffffffffffff1673ffffffffffffffffffffffffffffffffffffffff1681526020019081526020016000206001016000828254039250508190555080600860008473ffffffffffffffffffffffffffffffffffffffff1673ffffffffffffffffffffffffffffffffffffffff16815260200190815260200160002060030160008282540192505081905550505050565b600081905060005b600c60008573ffffffffffffffffffffffffffffffffffffffff1673ffffffffffffffffffffffffffffffffffffffff168152602001908152602001600020805490508160ff161015613cfd576000600c60008673ffffffffffffffffffffffffffffffffffffffff1673ffffffffffffffffffffffffffffffffffffffff1681526020019081526020016000208260ff1681548110613c7e57fe5b9060005260206000200160009054906101000a900473ffffffffffffffffffffffffffffffffffffffff169050600073ffffffffffffffffffffffffffffffffffffffff168373ffffffffffffffffffffffffffffffffffffffff161415613ce4578093505b613cef818686614220565b508080600101915050613be2565b50505050565b600060089054906101000a900473ffffffffffffffffffffffffffffffffffffffff1673ffffffffffffffffffffffffffffffffffffffff163373ffffffffffffffffffffffffffffffffffffffff1614613dc6576040517f08c379a000000000000000000000000000000000000000000000000000000000815260040180806020018281038252601a8152602001807f4f6e6c7920746865206f776e65722063616e20646f206974202100000000000081525060200191505060405180910390fd5b6000600115158215151415613fc157600860008473ffffffffffffffffffffffffffffffffffffffff1673ffffffffffffffffffffffffffffffffffffffff16815260200190815260200160002060020160009054906101000a900460ff16600460018282829054906101000a900460ff160192506101000a81548160ff021916908360ff160217905550613eb28384600554600860008873ffffffffffffffffffffffffffffffffffffffff1673ffffffffffffffffffffffffffffffffffffffff16815260200190815260200160002060020160009054906101000a900460ff1660ff1602613a24565b600860008473ffffffffffffffffffffffffffffffffffffffff1673ffffffffffffffffffffffffffffffffffffffff16815260200190815260200160002060020160009054906101000a900460ff169050600860008473ffffffffffffffffffffffffffffffffffffffff1673ffffffffffffffffffffffffffffffffffffffff16815260200190815260200160002060020160009054906101000a900460ff16600860008573ffffffffffffffffffffffffffffffffffffffff1673ffffffffffffffffffffffffffffffffffffffff16815260200190815260200160002060000160008282829054906101000a900460ff160392506101000a81548160ff021916908360ff1602179055505b6000600860008573ffffffffffffffffffffffffffffffffffffffff1673ffffffffffffffffffffffffffffffffffffffff16815260200190815260200160002060020160006101000a81548160ff021916908360ff1602179055507fc7a9c431e43e336272fc578caf7bad995def452e4f67f912afccabbc417de0218382600860008773ffffffffffffffffffffffffffffffffffffffff1673ffffffffffffffffffffffffffffffffffffffff16815260200190815260200160002060030154604051808473ffffffffffffffffffffffffffffffffffffffff1673ffffffffffffffffffffffffffffffffffffffff1681526020018360ff1660ff168152602001828152602001935050505060405180910390a1505050565b60008590506000869050831561411357600160009054906101000a900473ffffffffffffffffffffffffffffffffffffffff1691505b821561413f57600160009054906101000a900473ffffffffffffffffffffffffffffffffffffffff1690505b6000151585151514156141b75760048081111561415857fe5b600860008973ffffffffffffffffffffffffffffffffffffffff1673ffffffffffffffffffffffffffffffffffffffff16815260200190815260200160002060040160009054906101000a900460ff1660048111156141b357fe5b1495505b85801561420657506000600860008973ffffffffffffffffffffffffffffffffffffffff1673ffffffffffffffffffffffffffffffffffffffff16815260200190815260200160002060010154115b156142175761421687838361444c565b5b50505050505050565b6000600b60008473ffffffffffffffffffffffffffffffffffffffff1673ffffffffffffffffffffffffffffffffffffffff16815260200190815260200160002060008573ffffffffffffffffffffffffffffffffffffffff1673ffffffffffffffffffffffffffffffffffffffff1681526020019081526020016000205490506000600b60008573ffffffffffffffffffffffffffffffffffffffff1673ffffffffffffffffffffffffffffffffffffffff16815260200190815260200160002060008673ffffffffffffffffffffffffffffffffffffffff1673ffffffffffffffffffffffffffffffffffffffff1681526020019081526020016000208190555080600860008473ffffffffffffffffffffffffffffffffffffffff1673ffffffffffffffffffffffffffffffffffffffff168152602001908152602001600020600301600082825401925050819055507f296447608dcfdf26c0025d364259f3284faa1bebe9af2f8fdfceb6021e41dc3d84848484604051808573ffffffffffffffffffffffffffffffffffffffff1673ffffffffffffffffffffffffffffffffffffffff1681526020018473ffffffffffffffffffffffffffffffffffffffff1673ffffffffffffffffffffffffffffffffffffffff1681526020018373ffffffffffffffffffffffffffffffffffffffff1673ffffffffffffffffffffffffffffffffffffffff16815260200182815260200194505050505060405180910390a150505050565b600160009054906101000a900473ffffffffffffffffffffffffffffffffffffffff1673ffffffffffffffffffffffffffffffffffffffff163373ffffffffffffffffffffffffffffffffffffffff1614806144d357508273ffffffffffffffffffffffffffffffffffffffff163373ffffffffffffffffffffffffffffffffffffffff16145b614528576040517f08c379a000000000000000000000000000000000000000000000000000000000815260040180806020018281038252603181526020018061467a6031913960400191505060405180910390fd5b6145758383600860008773ffffffffffffffffffffffffffffffffffffffff1673ffffffffffffffffffffffffffffffffffffffff16815260200190815260200160002060010154613a24565b61457f8382613bda565b50505056fe796f757220636172706f6f6c696e672773207374617465206d7573742062652027626f6f6b6564274f6e6c79207468652070617373656e6765722c206f7220746865206f776e65722c206f722074686520636f6e666c696374206f776e65722063616e20646f2069746e536c6f74202b206e417661696c61626c65536c6f74206d7573742075696e7438203a203c3d203235356e417661696c61626c65536c6f74206d757374206265203e3d206e536c6f7420726574726965766564746865726520617265206e6f2070656e64696e672071756572792066726f6d2074686973207573657220746f207468697320736572766963656d73672e73656e646572206973206e6f742074686520636f6e666c6963744f776e6572206e6f722070617373656e676572616d6f756e74526566756e646564206d757374206265203c3d20616d6f756e74426f6f6b6564796f7520646f6e2774206861766520616e797468696e6720746f20626520726566756e642021636f6e666c6963742063616e20626520736f6c766564206166746572206174206c6561737420323420686f757273a265627a7a7231582074d9553278d6bd20041664ff6701f88928a7b2fd073c765cc8ab933fadeb4b4d64736f6c63430005100032a265627a7a723158207c8b559b7a20d653d054abb37c05a1de77668ac9b88ef677aec7200b3baa10e364736f6c63430005100032",
  "source": "// SPDX-License-Identifier: MIT\r\npragma solidity = 0.5.16;\r\n\r\nimport \"./Carpooling.sol\";\r\nimport \"./MetaVariable.sol\";\r\n\r\ncontract CarpoolingFactory is metaVariables {\r\n    address public admin;\r\n    address[] public carpoolingAddress;\r\n    uint64[] public carpoolingIds;\r\n\r\n    // Service query to join the safe registry\r\n    enum SafeRegistryState {unknow, pending, validated, refused, conflicted}\r\n    mapping(address => SafeRegistryState) servicesSafeRegistryState; // {service1: pending, service2: validated, ...}\r\n\r\n    // User query to subscribe to a service: idCheck, insurance...\r\n    mapping(address => mapping(uint64 => mapping(address => uint8))) pendingServiceCarpoolUserOptions; // {service1:{user9:7, user21:1}, ...}\r\n    mapping(address => mapping(uint64 => mapping(address => uint8))) serviceCarpoolUserOptions; // {service1:{user9:7, user21:1}, ...}\r\n    \r\n    event CreateCarpooling(address driver, uint64 carpoolingId, address carpooling);\r\n    event PendingSetServiceUserOption(address service, uint64 carpoolingId, address user, uint256 amount, bool cancel, bool success);\r\n    event SetServiceUserOption(address service, uint64 carpoolingId, address user, bool success);\r\n\r\n    constructor() public {\r\n        admin = msg.sender;\r\n    }\r\n\r\n    modifier onlyAdmin() {\r\n        require(msg.sender == admin, \"Only the admin can do it\");\r\n        _;\r\n    }\r\n    \r\n    // Create a carpooling linked to the factory contract.\r\n    function createCarpooling(string memory origin,\r\n     string memory destination, uint8 nSlot, uint256 price, \r\n     uint256 startTime,address payable conflictOwner, ModeConflict modeConflict\r\n     ) public {\r\n        uint64 carpoolingId = uint64(carpoolingIds.length);\r\n        Carpooling newCarpooling = new Carpooling(msg.sender, carpoolingId, origin, destination, nSlot, price,\r\n         startTime, conflictOwner, modeConflict);\r\n        carpoolingIds.push(carpoolingId);\r\n        carpoolingAddress.push(address(newCarpooling));\r\n\r\n        emit CreateCarpooling(msg.sender, carpoolingId, address(newCarpooling));\r\n    }\r\n\r\n    // everyone can find a carpooling address using index\r\n    function getCarpoolingAddressUsingIndex(uint64 index) public view returns(address) {\r\n        return carpoolingAddress[index];\r\n    }\r\n\r\n    // ---> Services - factoryContract\r\n    // A service ask to join the SafeRegistry\r\n    function askServiceSafeRegistry() public {\r\n        servicesSafeRegistryState[msg.sender] = SafeRegistryState.pending;\r\n    }\r\n\r\n    // admin set the status of the service.\r\n    function setServiceSafeRegistry(address service, SafeRegistryState status) public onlyAdmin {\r\n        servicesSafeRegistryState[service] = status;\r\n    }\r\n\r\n    // A user ask the status's service in servicesSafeRegistryState\r\n    function getServiceSafeRegistry(address service) public view returns(SafeRegistryState) {\r\n        return servicesSafeRegistryState[service];\r\n    }\r\n\r\n    // ---> Services - Users\r\n    // A user from the carpooling ask to get a service. Add option in VF. Services in safeRegistry listen to this event\r\n    function setPendingServiceCarpoolingUserOption(address service, uint64 carpoolingId, address user, uint256 amount, bool cancel) public {\r\n        bool success = false;\r\n        if(servicesSafeRegistryState[service] == SafeRegistryState.validated){\r\n            pendingServiceCarpoolUserOptions[service][carpoolingId][user] = 1;\r\n            success = true;\r\n        }\r\n        emit PendingSetServiceUserOption(service, carpoolingId, user, amount, cancel, success);\r\n    }\r\n\r\n    // the service can validate the user query\r\n    function setServiceCarpoolingUserOption(uint64 carpoolingId, address user, bool success) public {   \r\n        if(success==true){\r\n            serviceCarpoolUserOptions[msg.sender][carpoolingId][user] = pendingServiceCarpoolUserOptions[msg.sender][carpoolingId][user];   \r\n        }\r\n        delete pendingServiceCarpoolUserOptions[msg.sender][carpoolingId][user];\r\n        emit SetServiceUserOption(msg.sender, carpoolingId, user, success);\r\n    }\r\n}",
  "sourcePath": "C:\\Git work\\carpooling-poc\\contracts\\CarpoolingFactory.sol",
  "compiler": {
    "name": "solc",
    "version": "0.5.16+commit.9c3226ce.Emscripten.clang"
  },
  "schemaVersion": "3.4.11",
  "updatedAt": "2023-01-02T08:03:47.206Z",
  "devdoc": {
    "methods": {}
  },
  "userdoc": {
    "methods": {}
  }
}