{
  "contractName": "CreatingCarpooling",
  "abi": [
    {
      "inputs": [
        {
          "internalType": "address payable",
          "name": "_owner",
          "type": "address"
        },
        {
          "internalType": "uint64",
          "name": "_carpoolingId",
          "type": "uint64"
        },
        {
          "internalType": "string",
          "name": "_origin",
          "type": "string"
        },
        {
          "internalType": "string",
          "name": "_destination",
          "type": "string"
        },
        {
          "internalType": "uint8",
          "name": "_nSlot",
          "type": "uint8"
        },
        {
          "internalType": "uint256",
          "name": "_price",
          "type": "uint256"
        },
        {
          "internalType": "uint256",
          "name": "_startTime",
          "type": "uint256"
        },
        {
          "internalType": "address payable",
          "name": "_conflictOwner",
          "type": "address"
        },
        {
          "internalType": "enum metaVariables.ModeConflict",
          "name": "_carpoolingModeConflict",
          "type": "uint8"
        }
      ],
      "payable": false,
      "stateMutability": "nonpayable",
      "type": "constructor"
    },
    {
      "constant": true,
      "inputs": [
        {
          "internalType": "address",
          "name": "",
          "type": "address"
        }
      ],
      "name": "bookings",
      "outputs": [
        {
          "internalType": "uint8",
          "name": "nSlotBooked",
          "type": "uint8"
        },
        {
          "internalType": "uint256",
          "name": "amountBooked",
          "type": "uint256"
        },
        {
          "internalType": "uint8",
          "name": "nSlotAskRefund",
          "type": "uint8"
        },
        {
          "internalType": "uint256",
          "name": "amountRefunded",
          "type": "uint256"
        },
        {
          "internalType": "enum metaVariables.State",
          "name": "userState",
          "type": "uint8"
        }
      ],
      "payable": false,
      "stateMutability": "view",
      "type": "function"
    },
    {
      "constant": true,
      "inputs": [
        {
          "internalType": "uint256",
          "name": "",
          "type": "uint256"
        }
      ],
      "name": "bookingsAddress",
      "outputs": [
        {
          "internalType": "address",
          "name": "",
          "type": "address"
        }
      ],
      "payable": false,
      "stateMutability": "view",
      "type": "function"
    },
    {
      "constant": true,
      "inputs": [],
      "name": "carpoolingFactoryAddress",
      "outputs": [
        {
          "internalType": "address",
          "name": "",
          "type": "address"
        }
      ],
      "payable": false,
      "stateMutability": "view",
      "type": "function"
    },
    {
      "constant": true,
      "inputs": [],
      "name": "carpoolingModeConflict",
      "outputs": [
        {
          "internalType": "enum metaVariables.ModeConflict",
          "name": "",
          "type": "uint8"
        }
      ],
      "payable": false,
      "stateMutability": "view",
      "type": "function"
    },
    {
      "constant": true,
      "inputs": [],
      "name": "carpoolingState",
      "outputs": [
        {
          "internalType": "enum metaVariables.State",
          "name": "",
          "type": "uint8"
        }
      ],
      "payable": false,
      "stateMutability": "view",
      "type": "function"
    },
    {
      "constant": true,
      "inputs": [],
      "name": "conflictOwner",
      "outputs": [
        {
          "internalType": "address payable",
          "name": "",
          "type": "address"
        }
      ],
      "payable": false,
      "stateMutability": "view",
      "type": "function"
    },
    {
      "constant": true,
      "inputs": [],
      "name": "destination",
      "outputs": [
        {
          "internalType": "string",
          "name": "",
          "type": "string"
        }
      ],
      "payable": false,
      "stateMutability": "view",
      "type": "function"
    },
    {
      "constant": true,
      "inputs": [
        {
          "internalType": "uint256",
          "name": "",
          "type": "uint256"
        }
      ],
      "name": "mandatoryServices",
      "outputs": [
        {
          "internalType": "address",
          "name": "",
          "type": "address"
        }
      ],
      "payable": false,
      "stateMutability": "view",
      "type": "function"
    },
    {
      "constant": true,
      "inputs": [],
      "name": "nAvailableSlot",
      "outputs": [
        {
          "internalType": "uint8",
          "name": "",
          "type": "uint8"
        }
      ],
      "payable": false,
      "stateMutability": "view",
      "type": "function"
    },
    {
      "constant": true,
      "inputs": [],
      "name": "nConflict",
      "outputs": [
        {
          "internalType": "uint8",
          "name": "",
          "type": "uint8"
        }
      ],
      "payable": false,
      "stateMutability": "view",
      "type": "function"
    },
    {
      "constant": true,
      "inputs": [],
      "name": "nSlot",
      "outputs": [
        {
          "internalType": "uint8",
          "name": "",
          "type": "uint8"
        }
      ],
      "payable": false,
      "stateMutability": "view",
      "type": "function"
    },
    {
      "constant": true,
      "inputs": [],
      "name": "nValid",
      "outputs": [
        {
          "internalType": "uint8",
          "name": "",
          "type": "uint8"
        }
      ],
      "payable": false,
      "stateMutability": "view",
      "type": "function"
    },
    {
      "constant": true,
      "inputs": [],
      "name": "origin",
      "outputs": [
        {
          "internalType": "string",
          "name": "",
          "type": "string"
        }
      ],
      "payable": false,
      "stateMutability": "view",
      "type": "function"
    },
    {
      "constant": true,
      "inputs": [],
      "name": "owner",
      "outputs": [
        {
          "internalType": "address payable",
          "name": "",
          "type": "address"
        }
      ],
      "payable": false,
      "stateMutability": "view",
      "type": "function"
    },
    {
      "constant": true,
      "inputs": [
        {
          "internalType": "address",
          "name": "",
          "type": "address"
        },
        {
          "internalType": "address",
          "name": "",
          "type": "address"
        }
      ],
      "name": "pendingUserService",
      "outputs": [
        {
          "internalType": "uint256",
          "name": "",
          "type": "uint256"
        }
      ],
      "payable": false,
      "stateMutability": "view",
      "type": "function"
    },
    {
      "constant": true,
      "inputs": [],
      "name": "price",
      "outputs": [
        {
          "internalType": "uint256",
          "name": "",
          "type": "uint256"
        }
      ],
      "payable": false,
      "stateMutability": "view",
      "type": "function"
    },
    {
      "constant": true,
      "inputs": [],
      "name": "startTime",
      "outputs": [
        {
          "internalType": "uint256",
          "name": "",
          "type": "uint256"
        }
      ],
      "payable": false,
      "stateMutability": "view",
      "type": "function"
    },
    {
      "constant": true,
      "inputs": [
        {
          "internalType": "address",
          "name": "",
          "type": "address"
        },
        {
          "internalType": "address",
          "name": "",
          "type": "address"
        }
      ],
      "name": "userService",
      "outputs": [
        {
          "internalType": "uint256",
          "name": "",
          "type": "uint256"
        }
      ],
      "payable": false,
      "stateMutability": "view",
      "type": "function"
    },
    {
      "constant": true,
      "inputs": [
        {
          "internalType": "address",
          "name": "",
          "type": "address"
        },
        {
          "internalType": "uint256",
          "name": "",
          "type": "uint256"
        }
      ],
      "name": "userServices",
      "outputs": [
        {
          "internalType": "address",
          "name": "",
          "type": "address"
        }
      ],
      "payable": false,
      "stateMutability": "view",
      "type": "function"
    }
  ],
  "bytecode": "0x60806040523480156200001157600080fd5b50604051620010503803806200105083398181016040526101208110156200003857600080fd5b810190808051906020019092919080519060200190929190805160405193929190846401000000008211156200006d57600080fd5b838201915060208201858111156200008457600080fd5b8251866001820283011164010000000082111715620000a257600080fd5b8083526020830192505050908051906020019080838360005b83811015620000d8578082015181840152602081019050620000bb565b50505050905090810190601f168015620001065780820380516001836020036101000a031916815260200191505b50604052602001805160405193929190846401000000008211156200012a57600080fd5b838201915060208201858111156200014157600080fd5b82518660018202830111640100000000821117156200015f57600080fd5b8083526020830192505050908051906020019080838360005b838110156200019557808201518184015260208101905062000178565b50505050905090810190601f168015620001c35780820380516001836020036101000a031916815260200191505b50604052602001805190602001909291908051906020019092919080519060200190929190805190602001909291908051906020019092919050505088600060086101000a81548173ffffffffffffffffffffffffffffffffffffffff021916908373ffffffffffffffffffffffffffffffffffffffff160217905550876000806101000a81548167ffffffffffffffff021916908367ffffffffffffffff16021790555081600160006101000a81548173ffffffffffffffffffffffffffffffffffffffff021916908373ffffffffffffffffffffffffffffffffffffffff1602179055508660029080519060200190620002c1929190620004b0565b508560039080519060200190620002da929190620004b0565b5084600460006101000a81548160ff021916908360ff160217905550600460009054906101000a900460ff16600460016101000a81548160ff021916908360ff160217905550836005819055508260068190555080600760036101000a81548160ff021916908360028111156200034d57fe5b021790555033600e60006101000a81548173ffffffffffffffffffffffffffffffffffffffff021916908373ffffffffffffffffffffffffffffffffffffffff1602179055506001600860008060089054906101000a900473ffffffffffffffffffffffffffffffffffffffff1673ffffffffffffffffffffffffffffffffffffffff1673ffffffffffffffffffffffffffffffffffffffff16815260200190815260200160002060040160006101000a81548160ff021916908360048111156200041457fe5b02179055506009600060089054906101000a900473ffffffffffffffffffffffffffffffffffffffff1690806001815401808255809150509060018203906000526020600020016000909192909190916101000a81548173ffffffffffffffffffffffffffffffffffffffff021916908373ffffffffffffffffffffffffffffffffffffffff160217905550505050505050505050506200055f565b828054600181600116156101000203166002900490600052602060002090601f016020900481019282601f10620004f357805160ff191683800117855562000524565b8280016001018555821562000524579182015b828111156200052357825182559160200191906001019062000506565b5b50905062000533919062000537565b5090565b6200055c91905b80821115620005585760008160009055506001016200053e565b5090565b90565b610ae1806200056f6000396000f3fe608060405234801561001057600080fd5b50600436106101215760003560e01c806393bb67aa116100ad578063d026cd9811610071578063d026cd98146105e8578063d6ba650114610660578063d9ca617014610684578063df018fbb146106ce578063e71eafb8146106f257610121565b806393bb67aa146103d3578063a035b1fe1461044b578063a0a934ff14610469578063b269681d146104f7578063be1ccdaf1461057a57610121565b806370a94683116100f457806370a946831461029857806378e97925146102c45780637c3098f3146102e25780638da5cb5b14610306578063938b5f321461035057610121565b80630d7dc85714610126578063407386e81461019457806355404ace146101de578063621330c51461026c575b600080fd5b6101526004803603602081101561013c57600080fd5b8101908080359060200190929190505050610716565b604051808273ffffffffffffffffffffffffffffffffffffffff1673ffffffffffffffffffffffffffffffffffffffff16815260200191505060405180910390f35b61019c610752565b604051808273ffffffffffffffffffffffffffffffffffffffff1673ffffffffffffffffffffffffffffffffffffffff16815260200191505060405180910390f35b61022a600480360360408110156101f457600080fd5b81019080803573ffffffffffffffffffffffffffffffffffffffff16906020019092919080359060200190929190505050610778565b604051808273ffffffffffffffffffffffffffffffffffffffff1673ffffffffffffffffffffffffffffffffffffffff16815260200191505060405180910390f35b6102746107c3565b6040518082600281111561028457fe5b60ff16815260200191505060405180910390f35b6102a06107d6565b604051808260048111156102b057fe5b60ff16815260200191505060405180910390f35b6102cc6107e9565b6040518082815260200191505060405180910390f35b6102ea6107ef565b604051808260ff1660ff16815260200191505060405180910390f35b61030e610802565b604051808273ffffffffffffffffffffffffffffffffffffffff1673ffffffffffffffffffffffffffffffffffffffff16815260200191505060405180910390f35b610358610828565b6040518080602001828103825283818151815260200191508051906020019080838360005b8381101561039857808201518184015260208101905061037d565b50505050905090810190601f1680156103c55780820380516001836020036101000a031916815260200191505b509250505060405180910390f35b610435600480360360408110156103e957600080fd5b81019080803573ffffffffffffffffffffffffffffffffffffffff169060200190929190803573ffffffffffffffffffffffffffffffffffffffff1690602001909291905050506108c6565b6040518082815260200191505060405180910390f35b6104536108eb565b6040518082815260200191505060405180910390f35b6104ab6004803603602081101561047f57600080fd5b81019080803573ffffffffffffffffffffffffffffffffffffffff1690602001909291905050506108f1565b604051808660ff1660ff1681526020018581526020018460ff1660ff1681526020018381526020018260048111156104df57fe5b60ff1681526020019550505050505060405180910390f35b6104ff61094e565b6040518080602001828103825283818151815260200191508051906020019080838360005b8381101561053f578082015181840152602081019050610524565b50505050905090810190601f16801561056c5780820380516001836020036101000a031916815260200191505b509250505060405180910390f35b6105a66004803603602081101561059057600080fd5b81019080803590602001909291905050506109ec565b604051808273ffffffffffffffffffffffffffffffffffffffff1673ffffffffffffffffffffffffffffffffffffffff16815260200191505060405180910390f35b61064a600480360360408110156105fe57600080fd5b81019080803573ffffffffffffffffffffffffffffffffffffffff169060200190929190803573ffffffffffffffffffffffffffffffffffffffff169060200190929190505050610a28565b6040518082815260200191505060405180910390f35b610668610a4d565b604051808260ff1660ff16815260200191505060405180910390f35b61068c610a60565b604051808273ffffffffffffffffffffffffffffffffffffffff1673ffffffffffffffffffffffffffffffffffffffff16815260200191505060405180910390f35b6106d6610a86565b604051808260ff1660ff16815260200191505060405180910390f35b6106fa610a99565b604051808260ff1660ff16815260200191505060405180910390f35b6009818154811061072357fe5b906000526020600020016000915054906101000a900473ffffffffffffffffffffffffffffffffffffffff1681565b600e60009054906101000a900473ffffffffffffffffffffffffffffffffffffffff1681565b600c602052816000526040600020818154811061079157fe5b906000526020600020016000915091509054906101000a900473ffffffffffffffffffffffffffffffffffffffff1681565b600760039054906101000a900460ff1681565b600760009054906101000a900460ff1681565b60065481565b600760019054906101000a900460ff1681565b600060089054906101000a900473ffffffffffffffffffffffffffffffffffffffff1681565b60028054600181600116156101000203166002900480601f0160208091040260200160405190810160405280929190818152602001828054600181600116156101000203166002900480156108be5780601f10610893576101008083540402835291602001916108be565b820191906000526020600020905b8154815290600101906020018083116108a157829003601f168201915b505050505081565b600b602052816000526040600020602052806000526040600020600091509150505481565b60055481565b60086020528060005260406000206000915090508060000160009054906101000a900460ff16908060010154908060020160009054906101000a900460ff16908060030154908060040160009054906101000a900460ff16905085565b60038054600181600116156101000203166002900480601f0160208091040260200160405190810160405280929190818152602001828054600181600116156101000203166002900480156109e45780601f106109b9576101008083540402835291602001916109e4565b820191906000526020600020905b8154815290600101906020018083116109c757829003601f168201915b505050505081565b600d81815481106109f957fe5b906000526020600020016000915054906101000a900473ffffffffffffffffffffffffffffffffffffffff1681565b600a602052816000526040600020602052806000526040600020600091509150505481565b600460009054906101000a900460ff1681565b600160009054906101000a900473ffffffffffffffffffffffffffffffffffffffff1681565b600760029054906101000a900460ff1681565b600460019054906101000a900460ff168156fea265627a7a72315820994a05360270fcb511849283433b09955ea68f1cb4486020cf162968c9f14d5664736f6c63430005100032",
  "source": "// SPDX-License-Identifier: MIT\r\npragma solidity = 0.5.16;\r\n\r\nimport \"./MetaVariable.sol\";\r\n\r\ncontract CreatingCarpooling is metaVariables {\r\n    // carpooling description\r\n    uint64 carpoolingId;\r\n    address payable public owner;\r\n    address payable public conflictOwner;\r\n\r\n    string public origin;\r\n    string public destination;\r\n    uint8 public nSlot;\r\n    uint8 public nAvailableSlot;\r\n    uint256 public price;\r\n    uint256 public startTime;\r\n\r\n    State public carpoolingState;\r\n    uint8 public nConflict;\r\n    uint8 public nValid;\r\n\r\n    ModeConflict public carpoolingModeConflict;\r\n\r\n    struct Booking{\r\n        uint8 nSlotBooked;\r\n        uint256 amountBooked;\r\n        uint8 nSlotAskRefund;\r\n        uint256 amountRefunded;\r\n        State userState;\r\n    }\r\n\r\n    mapping(address => Booking) public bookings;\r\n    address[] public bookingsAddress;\r\n\r\n    mapping(address => mapping (address => uint256)) public pendingUserService; // info in ManagingServices\r\n    mapping(address => mapping (address => uint256)) public userService; // info in ManagingServices\r\n    mapping(address => address[]) public userServices; // info in ManagingServices\r\n    address[] public mandatoryServices; // add this in creatingCarpooling. in VF\r\n    \r\n\r\n    // Fictive: An other smart contract checks user data: name, phone number...\r\n    address public carpoolingFactoryAddress;\r\n\r\n    \r\n    modifier ownerOnly() {\r\n        require(msg.sender == owner, \"Only the owner can do it !\");\r\n        _;\r\n    }\r\n\r\n    constructor(\r\n        address payable _owner, uint64 _carpoolingId, string memory _origin, string memory _destination, \r\n        uint8 _nSlot, uint256 _price, uint _startTime, \r\n        address payable _conflictOwner, ModeConflict _carpoolingModeConflict\r\n        ) public {\r\n        owner = _owner;\r\n        carpoolingId = _carpoolingId;\r\n        conflictOwner = _conflictOwner;\r\n        \r\n        origin = _origin;\r\n        destination = _destination;\r\n        nSlot = _nSlot;\r\n        nAvailableSlot = nSlot;\r\n        price = _price;\r\n        startTime = _startTime;\r\n        \r\n        carpoolingModeConflict = _carpoolingModeConflict;\r\n        carpoolingFactoryAddress = msg.sender;\r\n        \r\n        bookings[owner].userState = State.booked;\r\n        bookingsAddress.push(owner);\r\n    }\r\n}",
  "sourcePath": "C:\\Git work\\carpooling-poc\\contracts\\CreatingCarpooling.sol",
  "compiler": {
    "name": "solc",
    "version": "0.5.16+commit.9c3226ce.Emscripten.clang"
  },
  "schemaVersion": "3.4.11",
  "updatedAt": "2023-01-02T08:03:47.211Z",
  "devdoc": {
    "methods": {}
  },
  "userdoc": {
    "methods": {}
  }
}